:020000040800F2
:1000000000000120050300080B030008110300088D
:1000100033030008390300085B03000800000000F8
:100020000000000000000000000000007D03000848
:100030008303000800000000890300088F03000804
:10004000AD030008AD030008AD030008AD030008D0
:10005000AD030008AD030008AD030008AD030008C0
:10006000AD030008AD030008ED060008AD0300086D
:10007000AD030008AD030008AD030008AD030008A0
:10008000AD030008AD030008AD0300080000000048
:10009000000000000000000000000000150700083C
:1000A000AD030008AD030008AD030008AD03000870
:1000B000AD030008AD030008AD030008AD03000860
:1000C000AD030008AD030008AD030008AD03000850
:1000D000AD030008AD030008AD03000800000000F8
:1000E000AD030008AD030008AD03000800000000E8
:1000F000000000000000000000000000AD03000848
:1001000000000000AD030008AD030008AD030008C7
:1001100000000000000000000000000000000000DF
:10012000AD030008AD030008AD030008AD030008EF
:10013000AD03000800000000000000000000000007
:10014000000000000000000000000000AD030008F7
:10015000AD030008AD030008AD030008AD030008BF
:10016000AD030008AD03000800000000000000001F
:10017000000000000000000000000000000000007F
:1001800000000000AD0300080000000000000000B7
:10019000AD03000880B596B000AF00F037F94F4BC3
:1001A0007B6524E07B6D1A1D7A651B683B647B6D63
:1001B0001A1D7A651B68FB637B6D1A1D7A651B68C7
:1001C000BB633B6C7B63FB6B3B63BB6BFB623B6B5F
:1001D000BB6207E07A6B131D7B63BB6A191DB962B2
:1001E00012681A60FA6ABB6A9A42F3D800BF7B6D44
:1001F0003B4A9342D6D33B4B3B651AE03B6D1A1DFD
:100200003A651B68BB643B6D1A1D3A651B687B64CD
:10021000BB6C7B627B6C3B627B6AFB6104E0FB69CD
:100220001A1DFA6100221A603A6AFB699A42F6D8EE
:1002300000BF3B6D2C4A9342E0D300F0F5F83A1D25
:1002400007F108031146184600F0CEF8274A284B5C
:10025000D31A9B103B610023FB6007E0244AFB6834
:1002600052F823309847FB680133FB603A69FB681A
:100270009A42F3DC1F4A204BD31A9B103B610023A8
:10028000FB6007E01C4AFB6852F823309847FB6884
:100290000133FB603A69FB689A42F3DC00BFBB683C
:1002A0007A681146184600F06BF9F864134A144B4B
:1002B000D31A9B10BB61BB697B6108E07B69013B82
:1002C0000F4A52F8233098477B69013B7B617B6979
:1002D000002BF3DC00BFF86C00F080F8B4030008DA
:1002E000CC030008CC030008DC030008DC03000892
:1002F000DC030008DC030008DC030008DC03000862
:10030000DC0300082548004700BF80B400AFFEE7CB
:100310001EF0040F0CBFEFF30880EFF30980714665
:100320001F4A104700BF80B483B000AF78603960C7
:10033000FEE780B400AFFEE71EF0040F0CBFEFF342
:100340000880EFF309807146164A104700BF80B459
:1003500083B000AF78603960FEE71EF0040F0CBF79
:10036000EFF30880EFF3098071460F4A104700BF92
:1003700080B483B000AF78603960FEE780B400AF2E
:10038000FEE780B400AFFEE780B400AFFEE780B4C4
:1003900000AF00BFBD4680BC70470000950100085B
:1003A000270300084F0300087103000880B400AF62
:0203B000FEE766
:1003B400C00D00080000002040000020C00D00080F
:1003C4000000001000000010400000204400002045
:0803D400000000100000001001
:1003DC0080B582B000AF786000F03CF880B483B098
:1003EC0000AF786039607B6801221A603B68034A71
:1003FC001A6000BF0C37BD4680BC7047000000205F
:10040C0080B500AF00F02AF8024B034A9A6000BF97
:10041C0080BD00BF00ED00E00000000880B500AF1B
:10042C0000F028F800BF80BD80B400AFBFF34F8F41
:10043C0000BF064BDB6803F4E0620449044B134332
:10044C00CB60BFF34F8F00BF00BFFDE700ED00E0B6
:10045C000400FA0580B500AFFFF7E6FF80B400AFEB
:10046C00034B4FF000629A6000BFBD4680BC7047E2
:10047C0000ED00E080B487B000AF00233B610023A7
:10048C007B610223FB600023BB6002237B60344B47
:10049C009B6803F00C033B613B69082B11D03B6953
:1004AC00082B44D83B69002B03D03B69042B04D0A8
:1004BC003DE02C4B2C4A1A603DE02A4B2B4A1A602B
:1004CC0039E0274B5B689B0D03F00103BB60244BA9
:1004DC005B6803F03F037B60BB68002B0CD0234AA6
:1004EC007B68B2FBF3F31E4A52689209C2F308020E
:1004FC0002FB03F37B610BE01B4A7B68B2FBF3F35B
:10050C00174A52689209C2F3080202FB03F37B619B
:10051C00134B5B681B0C03F0030301335B00FB60A4
:10052C007A69FB68B2FBF3F30E4A136003E00D4BE0
:10053C000D4A1A6000BF0A4B9B681B0903F00F039E
:10054C000B4AD35C3B61074B1A683B6922FA03F3F5
:10055C00044A136000BF1C37BD4680BC704700BF07
:10056C0000380240080000200024F40000127A0039
:10057C004C0B000880B500AF00F07DF800F08AF855
:10058C00134B5B68DBB21A460921002000F002FA1B
:10059C00092000F09FFA092000F0BCFA0C4B5B68B4
:1005AC00DBB21A460421012000F0F4F9042000F01B
:1005BC0091FA042000F0AEFA064B1B78DBB2184619
:1005CC0000F00AF84FF47A7000F034F8F4E700BF4A
:1005DC00B40D00084100002080B584B000AF034684
:1005EC00FB710023FB601AE0FB68D9B2FA79104862
:1005FC001346DB009B1AC218FB6813441B78002BB4
:10060C0014BF01230023DBB21A46412000F088F905
:10061C004FF47A7000F00EF8FB680133FB60FB6856
:10062C00062BE1DD00BF00BF1037BD4680BD00BF0B
:10063C005C0B000880B485B000AF78600023FB60D1
:10064C000023BB600023FB600BE00023BB6002E0D7
:10065C00BB680133BB60BB68012BF9D9FB68013364
:10066C00FB60FB687A689A42EFD800BF00BF143772
:10067C00BD4680BC704780B500AF00F059F8002033
:10068C0000F064F8012000F061F86E2000F05EF8D4
:10069C0000BF80BD80B582B000AF00237B6000231B
:1006AC007B6009E07B68D9B200230122412000F075
:1006BC00D5F87B6801337B607B68062BF2D902236B
:1006CC0000220921412000F0C9F802230022042154
:1006DC00422000F0C3F800BF0837BD4680BD0000C3
:1006EC0080B400AF074B1B78DBB2002B06D0054B58
:1006FC001B78DBB2013BDAB2024B1A7000BFBD466D
:10070C0080BC70474100002080B400AF074B1B78C1
:10071C00DBB2082B06D8054B1B78DBB20133DAB2FF
:10072C00024B1A7000BFBD4680BC704741000020D0
:10073C0080B400AF044B1B68034A43F00103136001
:10074C0000BFBD4680BC70470038024080B485B005
:10075C0000AF0346FB71FB795B09FB73FB7903F07C
:10076C001F03BB73FB7B032B36D801A252F823F07B
:10077C008D070008A3070008B9070008CF07000879
:10078C00184B1B68BA7B012101FA02F21146154A7B
:10079C000B43136021E0144B1B68BA7B012101FA57
:1007AC0002F21146104A0B43136016E00F4B1B6804
:1007BC00BA7B012101FA02F211460C4A0B43136079
:1007CC000BE00B4B1B68BA7B012101FA02F21146BC
:1007DC00074A0B43136000E000BF00BF1437BD464F
:1007EC0080BC7047303802403438024040380240F8
:1007FC004438024080B483B000AF0346FB71FB79F0
:10080C00EF2B1FD8FB795B09DAB2114B1A70FB790D
:10081C0003F01F03DAB20F4B1A700D4B1B781A46FC
:10082C000D4B53F822301A680A4B1B7819460123DA
:10083C008B401946064B1B781846074B53F8203053
:10084C000A431A6000BF0C37BD4680BC704700BF1E
:10085C0042000020430000200C00002090B486B021
:10086C0000AF0446084611461A462346FB71034660
:10087C00BB710B467B7113463B71FB79413BFB759E
:10088C00FB7D264A52F823303B613B7903F0010390
:10089C00FB733B795B08BB733B691B68BA795200ED
:1008AC00032101FA02F2D2431A403B691A603B69F8
:1008BC001B687979BA79520001FA02F21A433B6942
:1008CC001A603B695B68BA79012101FA02F2D243E2
:1008DC001A403B695A603B695B68F97BBA7901FA4B
:1008EC0002F21A433B695A603B69DB68BA795200E1
:1008FC00032101FA02F2D2431A403B69DA603B69E8
:10090C00DB68B97BBA79520001FA02F21A433B69EF
:10091C00DA6000BF1837BD4690BC70472C00002031
:10092C0080B485B000AF0346FB710B46BB71134618
:10093C007B71FB79413BFB73FB7B0E4A52F82330F6
:10094C00BB60BB685B69BA79012101FA02F2D24340
:10095C001A40BB685A61BB685B697979BA7901FA4C
:10096C0002F21A43BB685A6100BF1437BD4680BC03
:10097C00704700BF2C00002080B400AF72B600BFDF
:10098C00BD4680BC704780B400AF62B600BFBD46A8
:10099C0080BC704780B586B000AF0346FB710B4638
:1009AC00BB7113467B71FFF7E7FFBB799B08DBB28A
:1009BC001A46454B53F82230FB60BB7903F0030316
:1009CC009B00BB60FB681B680F21BA6801FA02F23E
:1009DC00D2431A40FB681A60FB681B68F979BA6845
:1009EC0001FA02F21A43FB681A607B7901229342E6
:1009FC000AD1364B9B68BA79012101FA02F21146F1
:100A0C00324A0B43936026E07B79002293420AD151
:100A1C002E4BDB68BA79012101FA02F211462B4AFE
:100A2C000B43D36017E07B790222934213D1274BFF
:100A3C00DB68BA79012101FA02F21146234A0B4311
:100A4C00D360224B9B68BA79012101FA02F211465C
:100A5C001E4A0B4393601D4B1B68BA79012101FAA6
:100A6C0002F21146194A0B43136000237B610023E9
:100A7C003B6118E0164A3B6932F83320BB799BB2D4
:100A8C009A420DD1124A3B69DB0013449B78FA79E8
:100A9C009A4205D13B69DB000D4A13447B6105E0AA
:100AAC003B6901333B613B693F2BE3D97B69002BED
:100ABC0004D07B699B791846FFF79CFEFFF763FF18
:100ACC0000BF1837BD4680BDA40D0008003C014096
:100ADC00A40B000880B582B000AF0346FB800B4B23
:100AEC001B68FA88012101FA02F21146074A0B43EE
:100AFC001360FB88064ADB0013449B791846FFF70A
:100B0C0079FE00BF0837BD4680BD00BF003C0140E8
:100B1C00A40B000880B483B000AF0346FB71074BF5
:100B2C005B69FA79012101FA02F21146034A0B437F
:100B3C00536100BF0C37BD4680BC7047003C014080
:100B4C000000000000000000010203040607080971
:100B5C000001010101010100000000010100010080
:100B6C00010100010101000001010101010100006E
:100B7C00010100010100010100010101010101005D
:100B8C00010000000001010101010101010101014D
:100B9C00010001010101000000000000000006003E
:100BAC00000001000000060000000200000006002A
:100BBC000000030000000600010000000100070017
:100BCC000100010001000700010002000100070004
:100BDC0001000300010007000200000002000800F1
:100BEC0002000100020008000200020002000800DE
:100BFC0002000300020008000300000003000900CB
:100C0C0003000100030009000300020003000900B7
:100C1C0003000300030009000400000004000A00A4
:100C2C000400010004000A000400020004000A0091
:100C3C000400030004000A00050000000500170072
:100C4C000500010005001700050002000500170053
:100C5C000500030005001700060000000600170041
:100C6C00060001000600170006000200060017002F
:100C7C00060003000600170007000000070017001D
:100C8C00070001000700170007000200070017000B
:100C9C0007000300070017000800000008001700F9
:100CAC0008000100080017000800020008001700E7
:100CBC0008000300080017000900000009001700D5
:100CCC0009000100090017000900020009001700C3
:100CDC0009000300090017000A0000000A002800A0
:100CEC000A0001000A0028000A0002000A0028007D
:100CFC000A0003000A0028000B0000000B0028006B
:100D0C000B0001000B0028000B0002000B00280058
:100D1C000B0003000B0028000C0000000C00280046
:100D2C000C0001000C0028000C0002000C00280034
:100D3C000C0003000C0028000D0000000D00280022
:100D4C000D0001000D0028000D0002000D00280010
:100D5C000D0003000D0028000E0000000E002800FE
:100D6C000E0001000E0028000E0002000E002800EC
:100D7C000E0003000E0028000F0000000F002800DA
:100D8C000F0001000F0028000F0002000F002800C8
:100D9C000F0003000F002800083801400C380140F8
:100DAC001038014014380140010000000000000020
:040DBC000200000031
:100DC00040000020000000000024F40000E100E0EA
:100DD00004E100E008E100E00CE100E010E100E0E7
:100DE00014E100E018E100E01CE100E00000024036
:100DF0000004024000080240000C024000100240C3
:040000050800019559
:00000001FF
